:100000000C945D000C9485000C9485000C94850084
:100010000C9485000C9485000C9485000C9485004C
:100020000C9485000C9485000C9485000C9485003C
:100030000C9485000C9485000C9485000C9485002C
:100040000C9405020C9485000C9475020C944F02DC
:100050000C9485000C9485000C9485000C9485000C
:100060000C9485000C9485000000000024002700FB
:100070002A0000000000250028002B0004040404CE
:100080000404040402020202020203030303030342
:10009000010204081020408001020408102001021F
:1000A00004081020000000080002010000030407FB
:1000B0000000000000000000040411241FBECFEF68
:1000C000D8E0DEBFCDBF11E0A0E0B1E0ECEFFBE097
:1000D00002C005900D92A631B107D9F721E0A6E143
:1000E000B1E001C01D92AC3BB207E1F710E0CDE5F5
:1000F000D0E004C02197FE010E94F605CC35D1075F
:10010000C9F70E94A7020C94FC050C94000090E033
:10011000FC01EC55FF4F2491FC01E057FF4F349157
:10012000FC01E458FF4FE491EE23C9F0222339F09B
:10013000233001F1A8F4213019F1223029F1F0E047
:10014000EE0FFF1FEE58FF4FA591B4918FB7F894B3
:10015000EC91611126C030953E233C938FBF0895EA
:100160002730A9F02830C9F0243049F78091800069
:100170008F7D03C0809180008F7780938000DFCFD8
:1001800084B58F7784BDDBCF84B58F7DFBCF809125
:10019000B0008F778093B000D2CF8091B0008F7D78
:1001A000F9CF3E2BDACF3FB7F8948091B801909108
:1001B000B901A091BA01B091BB0126B5A89B05C0B9
:1001C0002F3F19F00196A11DB11D3FBFBA2FA92FD6
:1001D000982F8827BC01CD01620F711D811D911DD3
:1001E00042E0660F771F881F991F4A95D1F708953F
:1001F000AF92BF92CF92DF92EF92FF920F931F9335
:10020000CF93DF936C017B018B01040F151FEB0172
:100210005E01AE18BF08C017D10759F06991D60129
:10022000ED91FC910190F081E02DC6010995892B9B
:1002300079F7C501DF91CF911F910F91FF90EF905A
:10024000DF90CF90BF90AF900895FC01538D448D07
:10025000252F30E0842F90E0821B930B541710F071
:10026000CF96089501970895FC01918D828D98177E
:1002700061F0A28DAE0FBF2FB11D5D968C91928D56
:100280009F5F9F73928F90E008958FEF9FEF089587
:10029000FC01918D828D981731F0828DE80FF11D50
:1002A000858D90E008958FEF9FEF0895FC01918D6B
:1002B000228D892F90E0805C9F4F821B91098F7364
:1002C0009927089586E191E00E94560121E0892B4B
:1002D00009F420E0822F089580E090E0892B29F036
:1002E0000E94620181110C9400000895FC01A48D0C
:1002F000A80FB92FB11DA35ABF4F2C91848D90E048
:1003000001968F739927848FA689B7892C93A0892A
:10031000B1898C91837080648C93938D848D9813B4
:1003200006C00288F389E02D80818F7D8083089547
:10033000EF92FF920F931F93CF93DF93EC0181E035
:10034000888F9B8D8C8D98131AC0E889F9898081DC
:1003500085FF15C09FB7F894EE89FF896083E8890F
:10036000F98980818370806480839FBF81E090E001
:10037000DF91CF911F910F91FF90EF900895F62E8E
:100380000B8D10E00F5F1F4F0F731127E02E8C8D28
:100390008E110CC00FB607FCFACFE889F98980816D
:1003A00085FFF5CFCE010E947601F1CFEB8DEC0FEA
:1003B000FD2FF11DE35AFF4FF0829FB7F8940B8F8A
:1003C000EA89FB8980818062CFCFCF93DF93EC01F4
:1003D000888D8823B9F0AA89BB89E889F9898C912D
:1003E00085FD03C0808186FD0DC00FB607FCF7CFE9
:1003F0008C9185FFF2CF808185FFEDCFCE010E94E9
:100400007601E9CFDF91CF9108951F920F920FB639
:100410000F9211242F933F938F939F93AF93BF938A
:100420008091B4019091B501A091B601B091B7014E
:100430003091B30123E0230F2D3758F50196A11D0C
:10044000B11D2093B3018093B4019093B501A093A3
:10045000B601B093B7018091B8019091B901A09114
:10046000BA01B091BB010196A11DB11D8093B801E5
:100470009093B901A093BA01B093BB01BF91AF9122
:100480009F918F913F912F910F900FBE0F901F90D2
:10049000189526E8230F0296A11DB11DD2CF1F92F9
:1004A0000F920FB60F9211242F933F934F935F93A8
:1004B0006F937F938F939F93AF93BF93EF93FF932C
:1004C00086E191E00E947601FF91EF91BF91AF919B
:1004D0009F918F917F916F915F914F913F912F915C
:1004E0000F900FBE0F901F9018951F920F920FB68E
:1004F0000F9211242F938F939F93EF93FF93E0918B
:100500002601F09127018081E0912C01F0912D01CD
:1005100082FD1BC0908180912F018F5F8F7320918E
:100520003001821741F0E0912F01F0E0EA5EFE4FCA
:10053000958F80932F01FF91EF919F918F912F9134
:100540000F900FBE0F901F9018958081F4CFCF931E
:10055000DF93CDB7DEB7A1970FB6F894DEBF0FBE1D
:10056000CDBF789484B5826084BD84B5816084BD3C
:1005700085B5826085BD85B5816085BD80916E0041
:10058000816080936E001092810080918100826072
:1005900080938100809181008160809381008091AF
:1005A00080008160809380008091B100846080939E
:1005B000B1008091B00081608093B00080917A009A
:1005C000846080937A0080917A00826080937A00C0
:1005D00080917A00816080937A0080917A008068AF
:1005E00080937A001092C100E0912601F0912701DA
:1005F00082E08083E0912201F09123011082E0915A
:100600002401F09125018FEC808310922E01E0915E
:100610002A01F0912B0186E08083E0912801F0917E
:100620002901808180618083E0912801F091290176
:10063000808188608083E0912801F0912901808188
:1006400080688083E0912801F091290180818F7D6D
:100650008083E7E9F0E02491E3E8F0E084918823E7
:1006600099F090E0880F991FFC01E859FF4FA59180
:10067000B491FC01EE58FF4F859194918FB7F89497
:10068000EC91E22BEC938FBF83E0809300019AE022
:10069000492E512C612C712C00E010E0809100015A
:1006A00020E4829FC001112480937C0080917A0015
:1006B000806480937A0080917A0086FDFCCF6091FF
:1006C000780070917900072E000C880B990B0E941E
:1006D000DB0420E030E849E85FE30E94670520E0A2
:1006E00030E040E251E40E9431040E94A3045B0127
:1006F0006B01770FEE08FF08F7FE70C06DE286E130
:1007000091E00E94980122273327A9012C193D0965
:100710004E095F0919A2CE0181967C01CA01B90177
:10072000A30192010E94D405605DF70162937F01ED
:10073000211531054105510589F7E114F10461F0F6
:1007400001900020E9F73197AF014E195F09B70119
:1007500086E191E00E94F80042E050E063E171E040
:1007600086E191E00E94F80061E0F8E0AF16B10484
:100770000CF460E087E00E9487000E94D3004B01E8
:100780005C0188EBC82E8BE0D82EE12CF12C0E9466
:10079000D300681979098A099B09683E734081056D
:1007A0009105A8F321E0C21AD108E108F10888EE0A
:1007B000880E83E0981EA11CB11CC114D104E10471
:1007C000F10429F70115110509F468CF0E946201AF
:1007D000882309F463CF0E94000060CFA70196012F
:1007E00019A2CE0181967C01CA01B901A30192012F
:1007F0000E94D405605DF70162937F0121153105E8
:100800004105510589F799CFE6E1F1E013821282A3
:1008100088EE93E0A0E0B0E084839583A683B7835D
:1008200085E091E09183808385EC90E095878487D3
:1008300084EC90E09787868780EC90E0918B808BAA
:1008400081EC90E0938B828B82EC90E0958B848B93
:1008500086EC90E0978B868B118E128E138E148E01
:1008600008950E9445040C942D050E94260558F019
:100870000E941F0540F029F45F3F29F00C941605F3
:1008800051110C9461050C941C050E943E0568F3FF
:100890009923B1F3552391F3951B550BBB27AA2739
:1008A00062177307840738F09F5F5F4F220F331F73
:1008B000441FAA1FA9F335D00E2E3AF0E0E832D03B
:1008C00091505040E695001CCAF72BD0FE2F29D03E
:1008D000660F771F881FBB1F261737074807AB0710
:1008E000B0E809F0BB0B802DBF01FF2793585F4F85
:1008F0003AF09E3F510578F00C9416050C94610572
:100900005F3FE4F3983ED4F3869577956795B79566
:10091000F7959F5FC9F7880F911D9695879597F971
:100920000895E1E0660F771F881FBB1F62177307EA
:100930008407BA0720F0621B730B840BBA0BEE1FFF
:1009400088F7E09508950E94AA046894B1110C9468
:10095000610508950E94460588F09F5798F0B92FC9
:100960009927B751B0F0E1F0660F771F881F991FE4
:100970001AF0BA95C9F714C0B13091F00E94600521
:10098000B1E008950C946005672F782F8827B85F31
:1009900039F0B93FCCF3869577956795B395D9F73C
:1009A0003EF490958095709561957F4F8F4F9F4F46
:1009B0000895E89409C097FB3EF490958095709552
:1009C00061957F4F8F4F9F4F9923A9F0F92F96E99B
:1009D000BB279395F695879577956795B795F11110
:1009E000F8CFFAF4BB0F11F460FF1BC06F5F7F4FAD
:1009F0008F4F9F4F16C0882311F096E911C07723BF
:100A000021F09EE8872F762F05C0662371F096E8C7
:100A1000862F70E060E02AF09A95660F771F881F96
:100A2000DAF7880F9695879597F9089597F99F6754
:100A300080E870E060E008959FEF80EC0895002466
:100A40000A941616170618060906089500240A9433
:100A500012161306140605060895092E0394000CB9
:100A600011F4882352F0BB0F40F4BF2B11F460FF48
:100A700004C06F5F7F4F8F4F9F4F089557FD905871
:100A8000440F551F59F05F3F71F04795880F97FB52
:100A9000991F61F09F3F79F087950895121613060C
:100AA0001406551FF2CF4695F1DF08C0161617063B
:100AB0001806991FF1CF8695710561050894089570
:100AC000E894BB2766277727CB0197F908950E9402
:100AD0007A050C942D050E941F0538F00E9426050A
:100AE00020F0952311F00C9416050C941C0511248C
:100AF0000C9461050E943E0570F3959FC1F3950F1C
:100B000050E0551F629FF001729FBB27F00DB11D91
:100B1000639FAA27F00DB11DAA1F649F6627B00D21
:100B2000A11D661F829F2227B00DA11D621F739F0A
:100B3000B00DA11D621F839FA00D611D221F749F18
:100B40003327A00D611D231F849F600D211D822F5F
:100B5000762F6A2F11249F5750409AF0F1F0882386
:100B60004AF0EE0FFF1FBB1F661F771F881F9150B3
:100B70005040A9F79E3F510580F00C9416050C9447
:100B800061055F3FE4F3983ED4F3869577956795CA
:100B9000B795F795E7959F5FC1F7FE2B880F911DDD
:100BA0009695879597F90895A1E21A2EAA1BBB1B6B
:100BB000FD010DC0AA1FBB1FEE1FFF1FA217B30729
:100BC000E407F50720F0A21BB30BE40BF50B661F3F
:100BD000771F881F991F1A9469F760957095809503
:100BE00090959B01AC01BD01CF010895EE0FFF1F51
:0C0BF0000590F491E02D0994F894FFCFDB
:100BFC0001000000009801F8002501E501560134C0
:060C0C000148010D0A0081
:107E0000112484B714BE81FFF0D085E080938100F7
:107E100082E08093C00088E18093C10086E0809377
:107E2000C20080E18093C4008EE0C9D0259A86E02C
:107E300020E33CEF91E0309385002093840096BBD3
:107E4000B09BFECF1D9AA8958150A9F7CC24DD24C4
:107E500088248394B5E0AB2EA1E19A2EF3E0BF2EE7
:107E6000A2D0813461F49FD0082FAFD0023811F036
:107E7000013811F484E001C083E08DD089C08234E0
:107E800011F484E103C0853419F485E0A6D080C0E4
:107E9000853579F488D0E82EFF2485D0082F10E0AE
:107EA000102F00270E291F29000F111F8ED06801E7
:107EB0006FC0863521F484E090D080E0DECF843638
:107EC00009F040C070D06FD0082F6DD080E0C81688
:107ED00080E7D80618F4F601B7BEE895C0E0D1E017
:107EE00062D089930C17E1F7F0E0CF16F0E7DF06D8
:107EF00018F0F601B7BEE89568D007B600FCFDCFD4
:107F0000A601A0E0B1E02C9130E011968C91119780
:107F100090E0982F8827822B932B1296FA010C0160
:107F200087BEE89511244E5F5F4FF1E0A038BF0790
:107F300051F7F601A7BEE89507B600FCFDCF97BE46
:107F4000E89526C08437B1F42ED02DD0F82E2BD052
:107F50003CD0F601EF2C8F010F5F1F4F84911BD097
:107F6000EA94F801C1F70894C11CD11CFA94CF0C13
:107F7000D11C0EC0853739F428D08EE10CD085E9AC
:107F80000AD08FE07ACF813511F488E018D01DD067
:107F900080E101D065CF982F8091C00085FFFCCF94
:107FA0009093C60008958091C00087FFFCCF809118
:107FB000C00084FD01C0A8958091C6000895E0E648
:107FC000F0E098E1908380830895EDDF803219F02E
:107FD00088E0F5DFFFCF84E1DECF1F93182FE3DFCA
:107FE0001150E9F7F2DF1F91089580E0E8DFEE27F6
:047FF000FF270994CA
:027FFE00040479
:0400000300007E007B
:00000001FF
